:100000000C94DA010C9402020C9402020C94E204A7
:100010000C94E2040C94E2040C9402020C9402028C
:100020000C9402020C9402020C9402020C94020240
:100030000C9402020C9402020C9402020C94020230
:100040000C94F1080C9402020C9402020C9402022B
:100050000C9402020C9402020C9402020C94020210
:100060000C94B4030C9402028517F510FF160E17BA
:1000700015172417361745176717084AD73B3BCE85
:10008000016E84BCBFFDC12F3D6C74319ABD568397
:100090003DDA3D00C77F11BED9E4BB4C3E916BAA4F
:1000A000AABE000000803F05A84CCDB2D44EB9389E
:1000B00036A9020C50B9918688083CA6AAAA2ABE85
:1000C000000000803F0664EC1B3C04BC163E3BE590
:1000D000B93CC93C37C29E5A3D660498083EEA695D
:1000E000AAAA3E000000803F07634236B79BD8A70C
:1000F0001A39685618AEBAAB558C1D3CB7CC57634D
:10010000BD6DEDFD753EF6177231BF000000803FFA
:1001100008000000BE922449123EABAAAA2ABECD16
:10012000CCCC4C3E00000080BEABAAAAAA3E000088
:100130000000BF000000803F000000000008417880
:10014000D3BB4387D1133D190E3CC3BD4282AD2BB7
:100150003E68EC8276BED98FE1A93E4C80EFFFBEAF
:1001600001C4FF7F3F00000000004E414E494E4950
:100170005459494E46CDCCCC3D0AD7233C17B7D174
:100180003877CC2B329595E6241FB14F0A0000201A
:10019000410000C84200401C4620BCBE4CCA1B0E99
:1001A0005AAEC59D7400407A10F35A00A0724E18E2
:1001B000090010A5D4E80000E87648170000E40B19
:1001C00054020000CA9A3B000000E1F505000080DF
:1001D000969800000040420F000000A08601000039
:1001E00000102700000000E8030000000064000089
:1001F0000000000A00000000000100000000002CC8
:1002000076D888DC674F0823DFC1DFAE59E1B1B78C
:1002100096E5E3E453C63AE651997696E8E6C28459
:1002200026EB898C9B62ED407C6FFCEFBC9C9F4071
:10023000F2BAA56FA5F490055A2AF75C936B6CF996
:10024000676DC11BFCE0E40D47FEF520E6B500D06C
:10025000ED902E0300943577050080841E08000081
:10026000204E0A000000C80C333333330F986E124F
:10027000831141EF8D2114893BE65516CFFEE6DB55
:1002800018D1844B381BF77C1D901DA4BBE424209F
:100290003284725E228100C9F124ECA1E53D270081
:1002A000000000240027002A0000000008000201CE
:1002B000000003040700000000000000000100022D
:1002C0000004000800100020004000800000010031
:1002D0000200040008001000200040008000000020
:1002E00000000000000000000000000000C912C073
:1002F00015F912E3003005C812003A001700000695
:10030000002002CE12ED12240C5D23000400240014
:1003100009C03FC0120008C0000000000C3F0C06DE
:1003200000DB008F00E6006920FD000700FF00EF02
:10033000000012000A0024C80000098310BB02F765
:10034000008F1239000F12F9007100BD00F6000095
:10035000121E0070243800360536213F00F3003F9E
:1003600020F320ED0001123E00300C3628002D0055
:1003700015090C00000000230026002900000000E1
:1003800000250028002B00040404040404040402D3
:100390000202020202030303030303010204081022
:1003A00020408001020408102001020408102000EF
:1003B000A7178B1711241FBECFEFD8E0DEBFCDBF2C
:1003C00024E0A6ECB1E001C01D92A338B207E1F72A
:1003D00011E0A0E0B1E0E0EEFBE402C005900D9278
:1003E000A63CB107D9F711E0C9EDD1E004C02197CF
:1003F000FE010E94B61EC83DD107C9F70E943B0905
:100400000C94E3250C940000CF92DF92EF92FF92C0
:100410000F931F93CF93DF936C017A018B01C0E0A0
:10042000D0E0CE15DF0581F0D8016D918D01D601A8
:10043000ED91FC910190F081E02DC6010995892B89
:1004400011F02196EECF7E01C701DF91CF911F9170
:100450000F91FF90EF90DF90CF90089580E090E0B3
:10046000892B49F080E090E0892B29F00E94000060
:1004700081110C940000089585ED8093BC0080915B
:10048000BC0084FDFCCF1092A802089540915D024B
:10049000262F30E0240F311D21323105DCF420916C
:1004A000A8022430C9F4FC0180E090E0861758F4DB
:1004B00030915D022191DC01A55CBD4FA30FB11D00
:1004C0002C930196F3CF80915D02680F60935D02DB
:1004D00080E0089581E0089582E0089508950895E8
:1004E0000895E0913A0280913902E81730F4F0E083
:1004F000E75EFD4F808190E008958FEF9FEF0895B4
:1005000090913A0280913902981750F4E92FF0E067
:10051000E75EFD4F208130E09F5F90933A0202C07A
:100520002FEF3FEFC90108958091390290E02091AB
:100530003A02821B91090895CF92DF92EF92FF92C7
:100540000F931F93CF93DF937C01CB018A012091FE
:10055000A902222389F0EB016B01C40ED51ECC1534
:10056000DD0569F06991D701ED91FC910190F08171
:10057000E02DC7010995F3CF642F0E944602C80100
:10058000DF91CF911F910F91FF90EF90DF90CF906F
:100590000895CF93DF931F92CDB7DEB76983209183
:1005A000A9022223D1F02091CC02203240F021E098
:1005B00030E0FC013383228380E090E015C080911D
:1005C000AA02E82FF0E0E555FD4F998190838F5FF7
:1005D0008093AA028093CC0205C061E0CE0101960F
:1005E0000E94460281E090E00F90DF91CF91089544
:1005F0002091C8013091C9012817390771F49091F1
:10060000C6018091C701981741F0E091C601F0E062
:10061000E752FE4F808190E008958FEF9FEF08959D
:100620001F93CF93DF93DC015C968D919C915D9736
:10063000009739F421E030E013963C932E93129703
:100640003BC05196ED91FC91529750962C9150974A
:10065000322F30951FB75E964C915E97742F727053
:1006600041FD6095F8944081772311F0422B01C041
:1006700043234083EC012197F1F748E0508160FF6C
:1006800002C0522B01C053235083EC012197F1F794
:100690006695415099F78081772319F083238083F1
:1006A00002C0282B20831FBF5C968D919C915D9783
:1006B0000197F1F781E090E0DF91CF911F910895CC
:1006C0002091C8013091C9012817390771F4809130
:1006D000C7012091C60190E0805C9F4F821B910969
:1006E00060E470E00E94611E089580E090E008954B
:1006F0002091C8013091C90128173907B9F49091A8
:10070000C6018091C701981789F0E091C601F0E019
:10071000E752FE4F80812091C60130E02F5F3F4FAE
:100720002F7333272093C60190E008958FEF9FEF3A
:100730000895089580E090E008950E94F7226115E1
:10074000710579F0FB0101900020E9F73197AF01C5
:10075000461B570BDC01ED91FC910280F381E02DEB
:10076000099480E090E008951F920F920FB60F92C7
:1007700011242F933F934F935F936F937F938F93A6
:100780009F93AF93BF93EF93FF938091B900887FBE
:10079000803609F49CC068F5883209F45BC090F497
:1007A000803109F454C038F4882309F4F6C0883045
:1007B00009F44DC0F6C0883109F44CC0803209F408
:1007C0005DC0EFC0803409F468C048F4803309F498
:1007D00055C0883309F0E5C08093A602D8C08035A3
:1007E00009F44FC0883509F45DC0883409F0D9C0D8
:1007F000D6C0883909F4C7C0A8F4883709F467C09F
:1008000038F4883609F463C0803709F460C0C9C081
:10081000883809F4B8C0803909F45FC0803809F01D
:10082000C0C05BC0803B09F486C038F4803A09F44C
:1008300066C0883A09F47FC0B4C0803C09F4A7C000
:10084000883C09F4A4C0883B09F48AC0AAC08091FE
:10085000830210C09091A5028091A402981770F5B0
:10086000E091A50281E08E0F8093A502F0E0EC57A5
:10087000FD4F80818093BB0085EC86C08093A602EB
:100880008EC0E091A50281E08E0F8093A502809139
:10089000BB00F0E0EC57FD4F80839091A502809162
:1008A000A4026EC0E091A50281E08E0F8093A502A4
:1008B0008091BB00F0E0EC57FD4F80838091A70250
:1008C00081116DC081E08093820284EA61C083E07F
:1008D0008093A80210928102CFCF80918102803252
:1008E00008F051C0E091810281E08E0F8093810277
:1008F0008091BB00F0E0EF59FD4F8083BDCF85ECC8
:100900008093BC001092A80280918102803230F462
:10091000E0918102F0E0EF59FD4F10826091810279
:1009200070E0E0915F02F091600281E692E009954B
:100930001092810236C084E08093A80210925E0279
:1009400010925D02E0915B02F0915C02099580914A
:100950005D02811105C081E080935D0210923B022F
:10096000E0915E0281E08E0F80935E02F0E0E55C34
:10097000FD4F80818093BB0090915E0280915D026B
:10098000981708F479CF85E88093BC000AC085ECFD
:100990008093BC001092A80204C01092A6020E948C
:1009A0003C02FF91EF91BF91AF919F918F917F9109
:1009B0006F915F914F913F912F910F900FBE0F90CC
:1009C0001F9018951F920F920FB60F9211242F931C
:1009D0003F934F935F936F937F938F939F93AF93C7
:1009E000BF93EF93FF93E091C801F091C901309755
:1009F00009F451C0968DA685B785858591FF04C001
:100A00009C91892329F447C09C91892309F043C014
:100A1000A389B4899C918589809589238C93868943
:100A200097890197F1F7608D718DA685B7855585FA
:100A300038E020E0CB010197F1F7822F90E0959507
:100A40008795282F4C91452309F02068315091F764
:100A5000868D81FD20958091C70190E001968F736E
:100A600099273091C601381749F0A091C701B0E02D
:100A7000A752BE4F2C938093C70103C0868D81601F
:100A8000868F828D938D0197F1F7A389B4899C910C
:100A90008589892B8C93FF91EF91BF91AF919F91A5
:100AA0008F917F916F915F914F913F912F910F9017
:100AB0000FBE0F901F9018952F923F924F925F920A
:100AC0006F927F928F929F92AF92BF92CF92DF925E
:100AD000EF92FF920F931F93CF93DF93CDB7DEB7C3
:100AE000AC970FB6F894DEBF0FBECDBF89E0EAEB3E
:100AF000F1E0DE015A9601900D928A95E1F780911E
:100B00004504882309F4EFC08090CF039090D00370
:100B1000A090D103B090D203C090D303D090D4035F
:100B2000E090D503F090D6038091D7039091D8033D
:100B3000A091D903B091DA0389A79AA7ABA7BCA764
:100B4000DE011196BCA3ABA38FE01D928A95E9F755
:100B500020E030E543EC57E4C501B4010E94A01F3A
:100B60000E9419208B016730710508F07EC020E0DB
:100B700030E543EC57E4C701B6010E94A01F0E9474
:100B800019203B016D30710508F06FC0FE013396EE
:100B9000F8A7EFA3E1E0F0E0FEA3EDA3412C512C78
:100BA00020E030E0E5E0F0E0C801BF010E944D1E0A
:100BB0001C01C301BF010E944D1E280F391FA10156
:100BC0004C5E5F4F440D551D6BEF6203C001639F88
:100BD000900D1124840F951F269F302D1124089706
:100BE00010F086E501C085E5820D282E240C222D0B
:100BF000230FAFA1B8A52E93B8A7AFA3C801BF011B
:100C00000E944D1E8B01C301BF010E944D1E3B017E
:100C10008DA19EA1019721E030E042E0442E512CAD
:100C20001EA21DA2019609F0BFCF20E030E543ECE3
:100C300057E4C501B4010E9453206C837D838E83E9
:100C40009F8320E030E543EC57E4C701B6010E94E2
:100C50005320688779878A879B8789A59AA5ABA542
:100C6000BCA58C879D87AE87BF8742E050E0BE0160
:100C70006F5F7F4FCE014A960E9407236C817D8172
:100C80008E819F818E01005F1F4F20E045E00E9412
:100C90009E188889803209F480E38C8F898980329C
:100CA00009F480E38D8F8A89803209F480E38E8F86
:100CB000688579858A859B858E01005F1F4F20E0BE
:100CC00045E00E949E188889803209F480E38F8F66
:100CD0008989803209F480E388A38A89803209F403
:100CE00080E389A31AA2CE014A960E94BB07AC9664
:100CF0000FB6F894DEBF0FBECDBFDF91CF911F912D
:100D00000F91FF90EF90DF90CF90BF90AF909F90AA
:100D10008F907F906F905F904F903F902F900895AD
:100D20009C01205F3F4FFC0111921192CF01E2170D
:100D3000F307C9F70895EF92FF920F931F93CF9394
:100D4000DF93EC01888991E09093A9028093CB0214
:100D50001092AA021092CC0260E08DEC92E00E9408
:100D6000C9028E01005F1F4F7E0168818DEC92E009
:100D70000E94C9022296F70161818DEC92E00E94E7
:100D8000C902C017D10781F7DF91CF911F910F9151
:100D9000FF90EF900C944D071F93CF93DF93EC01DE
:100DA000688B10923A02109239021092AA021092A5
:100DB000CC021092A80211E01093A70210928202B6
:100DC00061E082E10E94400861E083E10E94400806
:100DD000E9EBF0E080818E7F808380818D7F80834E
:100DE00088E48093B80085E48093BC008EE692E0AE
:100DF00090935C0280935B028FE692E09093600296
:100E000080935F0288891093A9028093CB0210928D
:100E1000AA021092CC0261E28DEC92E00E94C9021B
:100E20000E944D0788891093A9028093CB021092EB
:100E3000AA021092CC0261E88DEC92E00E94C902F5
:100E40000E944D07CE01DF91CF911F910C94A9070D
:100E50003FB7F89480917D0490917E04A0917F0427
:100E6000B091800426B5A89B05C02F3F19F00196CC
:100E7000A11DB11D3FBFBA2FA92F982F8827820F20
:100E8000911DA11DB11DBC01CD0142E0660F771F70
:100E9000881F991F4A95D1F708953091CC023132BD
:100EA00008F04BC08091A8028111FCCF9091CB0239
:100EB00022E02093A80221E02093A7022FEF2093A5
:100EC000A6021092A5023093A402EBEAF2E0A4E895
:100ED000B2E020E0321721F041914D932F5FFACF1D
:100EE0001092830220918302990F922B9093830298
:100EF00090918202913061F410928202909183026B
:100F00009093BB009091BC0093FDF8CF95EC01C08D
:100F100095EE9093BC009091A8029230E1F39091ED
:100F2000A6029F3F79F08091A602803241F0809125
:100F3000A602803331F084E005C081E003C082E086
:100F400001C083E01092AA021092CC021092A90272
:100F50000895FC01808991E09093A9028093CB02CF
:100F60001092AA021092CC026FEE8DEC92E00E94D9
:100F7000C9020C944D07CF93DF93D82FC92F88EE69
:100F800093E00E94900689EF93E00E949006AD2FB7
:100F9000BC2FC8EED3E080EF93E0ED91F0E0EE0FD0
:100FA000FF1FE354FD4F25913491299339931396F4
:100FB000EC911397F0E0EE0FFF1FE354FD4F2591E6
:100FC0003491388B2F878C179D0739F788EE93E083
:100FD0000E949B0689EF93E0DF91CF910C949B06D2
:100FE00088EE93E00E94900689EF93E00E949006BD
:100FF00088EE93E00E949B0689EF93E00C949B0699
:10100000CF93DF93BC01C0915504D0915604209733
:1010100021F4C0915704D0915804CE010E949F033F
:1010200063EC71E0CE01DF91CF910C949F0383308C
:1010300081F028F4813099F08230A1F00895873052
:10104000A9F08830B9F08430D1F4809180008F7D90
:1010500003C0809180008F7780938000089584B5CD
:101060008F7702C084B58F7D84BD08958091B000D4
:101070008F7703C08091B0008F7D8093B00008957A
:101080001F93CF93DF93282F30E0F901E755FD4FF1
:101090008491F901E556FC4FD491F901E957FC4FD1
:1010A000C491CC23C1F0162F81110E941708EC2F98
:1010B000F0E0EE0FFF1FE358FC4FA591B4919FB7EE
:1010C000F894111104C08C91D095D82302C0EC91F2
:1010D000DE2BDC939FBFDF91CF911F910895CF93BB
:1010E000DF9390E0FC01E556FC4F2491FC01E957A9
:1010F000FC4F8491882361F190E0880F991FFC01D7
:10110000E156FD4FC591D491FC01E358FC4FA591E8
:10111000B491611109C09FB7F8948881209582230A
:101120008883EC912E230BC0623061F49FB7F89452
:101130008881322F309583238883EC912E2B2C933A
:101140009FBF06C08FB7F894E8812E2B28838FBFEE
:10115000DF91CF9108958F929F92AF92BF92CF92DD
:10116000DF92EF92FF926B017C010E9428074B01F6
:101170005C01C114D104E104F104F1F00E942807DC
:10118000DC01CB0188199909AA09BB09883E934063
:10119000A105B10570F321E0C21AD108E108F108F8
:1011A00088EE880E83E0981EA11CB11CC114D104E6
:1011B000E104F10419F7DDCFFF90EF90DF90CF90BD
:1011C000BF90AF909F908F9008952FB7F894609143
:1011D000790470917A0480917B0490917C042FBFF4
:1011E00008951F920F920FB60F9211242F933F93E1
:1011F0008F939F93AF93BF938091790490917A04DA
:10120000A0917B04B0917C043091780423E0230FFB
:101210002D3720F40196A11DB11D05C026E8230F2E
:101220000296A11DB11D20937804809379049093B8
:101230007A04A0937B04B0937C0480917D04909108
:101240007E04A0917F04B09180040196A11DB11D80
:1012500080937D0490937E04A0937F04B0938004D8
:10126000BF91AF919F918F913F912F910F900FBEA2
:101270000F901F901895CF93DF93CDB7DEB7C3576C
:10128000D1090FB6F894DEBF0FBECDBF789484B5F8
:10129000826084BD84B5816084BD85B5826085BD72
:1012A00085B5816085BD80916E00816080936E0000
:1012B00010928100809181008260809381008091F2
:1012C00081008160809381008091800081608093A3
:1012D00080008091B10084608093B1008091B00063
:1012E00081608093B00080917A00846080937A005E
:1012F00080917A00826080937A0080917A00816088
:1013000080937A0080917A00806880937A001092AE
:10131000C10060E788EE93E00E94CC0661E789EFA8
:1013200093E00E94CC0688EE93E00E94A90789EF23
:1013300093E00E94A90716E01093DB0382E38093F9
:10134000DD0388EE93E09093DF038093DE0360E09B
:1013500086E00E946F08E0915504F09156043097A2
:1013600009F48CC0138E128E118E108E178A168A75
:101370008DE991E0958F848F9485963108F04EC069
:101380002DEB30E0378B268B2BE931E0318F208F2E
:101390002CE231E0338F228F30916800983058F082
:1013A00021E09E3008F420E091E0892F01C0880FF1
:1013B0002A95EAF701C084E0832B80936800948526
:1013C000983038F09E3040F0963148F42CE630E00A
:1013D00008C02DE630E005C02BE630E002C020E07A
:1013E00030E0348B238B983030F481E001C0880FDB
:1013F0009A95EAF70EC0292F30E09E3018F4285055
:10140000310902C02E50310981E001C0880F2A95B0
:10141000EAF7858B848D958D0197F1F7828D938DF9
:10142000892B09F453C04091C8015091C901E417B8
:10143000F50709F44BC04115510571F0DA015396D7
:101440002D913C915497D9019C91DA0155968C913C
:1014500080958923D9018C93868D8E7F868F1092FB
:10146000C7011092C601F093C901E093C801A38996
:10147000B4899C918589892B8C9328C0E09157046D
:10148000F0915804A089B18982E08C93A485B58538
:101490001C92A685B7858FEC8C93108EA489B58994
:1014A0001C93A289B3898C9180618C93A289B389A2
:1014B0008C9188608C93A289B3898C9180688C937D
:1014C0000288F389E02D80818F7D80836AE070E05F
:1014D00080E090E00E94AB0884E291E00E94000866
:1014E00086E591E00E94000887E691E00E94BB0734
:1014F0000E94E5086093D3017093D4018093D501D5
:101500009093D60160ED77E080E090E00E94AB0818
:101510000E94F007FE0131961F010E94E50868A3B2
:1015200079A38AA39BA32091DB0330E0F901E7555F
:10153000FD4F8491F901E556FC4F1491F901E957EB
:10154000FC4F04910023A1F081110E941708E02FA5
:10155000F0E0EE0FFF1FED58FC4FA591B491EC9118
:101560001E2391E080E009F490E0092F182F02C0BB
:1015700000E010E08091DC03982F9D7F9093DC03C6
:1015800082FB882780F9902F9170981751F00E9464
:10159000E5086093E0037093E1038093E203909386
:1015A000E3030E94E508C090E003D090E103E090DF
:1015B000E203F090E303AB01BC014C195D096E0935
:1015C0007F098091DD0390E0A0E0B0E084179507EB
:1015D000A607B70740F58091DC030115110511F04E
:1015E000816001C08E7F8093DC038091DC0380FFEB
:1015F0000FC08091E4039091E503A091E603B091C0
:10160000E703892B8A2B8B2B11F40C94D0160FC077
:101610001092E4031092E5031092E6031092E703A0
:101620008D7F8093DC038091DC0380FF1DC00E94CE
:10163000E508C090E403D090E503E090E603F09065
:10164000E703AB01BC014C195D096E097F0980916C
:10165000DE039091DF03A0E0B0E084179507A607B2
:10166000B70710F40C94DC168091DC03012B11F009
:10167000846001C08B7F8093DC038091DC03182F92
:10168000117080FF0FC091E09093D70128A139A17C
:101690004AA15BA12093D3013093D4014093D5019B
:1016A0005093D60181FF0AC08091D2018F5F8830AC
:1016B00018F48093D20102C01092D20180914504A7
:1016C000882309F445C58091CE019091CF01A09166
:1016D000D001B091D10148A159A16AA17BA1481BB9
:1016E000590B6A0B7B0BDB01CA0189389341A105B9
:1016F000B10508F42DC520E030E044E353E46091E7
:1017000022047091230480912404909125040E9466
:10171000A01F2BED3FE049E450E40E942B1D4B013C
:101720005C0120E030E044E353E4609126047091D2
:10173000270480912804909129040E94A01F2BED7A
:101740003FE049E450E40E942B1D6B017C01C50180
:10175000B4010E946D216C8B7D8B8E8B9F8BC5019C
:10176000B4010E949B1F4B015C01C701B6010E949E
:101770006D21688F798F8A8F9B8FC701B6010E9478
:101780009B1F2B013C012C893D894E895F89CA0131
:10179000B9010E942B1D2EEB3BE54BED5BE30E9454
:1017A0002B1D9B01AC0160E070E080E89FE30E948C
:1017B000BC1E0E947B219B01AC0162E375EA82ECB6
:1017C0009AE40E94A01F6B017C0120E030E040E819
:1017D0005FE30E94BD1EA50194010E942B1D4B01D9
:1017E0005C019B01AC01C301B2010E942B1D2B01C6
:1017F0003C01A5019401688D798D8A8D9B8D0E9495
:101800002B1D6C8F7D8F8E8F9F8F29E439E44EE7DF
:101810005FE3C701B6010E942B1D20E030E040E8E5
:101820005FE30E94BD1E2C893D894E895F890E941D
:101830002B1D6B017C012CEA30E040E85FE3C30123
:10184000B2010E942B1D28E539E34FED53E40E94BD
:10185000BC1E4B015C0128E63DEF48E856EB6C8D61
:101860007D8D8E8D9F8D0E942B1D9B01AC01C5012E
:10187000B4010E94BC1E4B015C0120E739EB40EA39
:1018800055EBC701B6010E942B1D9B01AC01C501A0
:10189000B4010E94BD1E6C8B7D8B8E8B9F8B28E6C6
:1018A0003DEF48E856EBC301B2010E942B1D22E632
:1018B00030E54AEF52E40E94BD1E4B015C012CEA68
:1018C00030E040E85FE36C8D7D8D8E8D9F8D0E94B2
:1018D0002B1D9B01AC01C501B4010E94BD1E4B0133
:1018E0005C0129ED38E743E455EBC701B6010E94DE
:1018F0002B1D9B01AC01C501B4010E94BC1E688F69
:10190000798F8A8F9B8F20E739EB40EA55EBC30133
:10191000B2010E942B1D9B01AC0167ED73E887E0CB
:1019200094EC0E94BC1E4B015C0129ED38E743E4B6
:1019300055EB6C8D7D8D8E8D9F8D0E942B1D9B0197
:10194000AC01C501B4010E94BD1E4B015C012CEA33
:1019500030E040E85FE3C701B6010E942B1D9B0108
:10196000AC01C501B4010E94BD1E4B015C012C8974
:101970003D894E895F89CA01B9010E942B1D6B0107
:101980007C01288D398D4A8D5B8DCA01B9010E9479
:101990002B1D9B01AC01C701B6010E94BD1E0E9418
:1019A0007B216CA77DA78EA79FA727ED3AE44EE782
:1019B0005FE30E942B1D9B01AC01C501B4010E9495
:1019C0003C1F762E672E582E492EBBEDAFE0F9EC6A
:1019D000E0E42B2F3A2F4F2F5E2F672D762D852D8C
:1019E000942D0E94BC1E9F7725EC3CE548E255E310
:1019F0000E94102118160CF043C0672D762D852DFE
:101A0000942D0E946D216B017C019B01AC010E9411
:101A10002B1D20E834E94AED5BE30E942B1D9B015E
:101A2000AC0160E070E080E89FE30E94BC1E0E9471
:101A30007B219B01AC0167EB70EA82EC9AE40E9487
:101A4000A01F68AF79AF8AAF9BAF20E834E94AEDB9
:101A50005BE30E942B1DA70196010E942B1DA5018F
:101A600094010E94BD1E2CA53DA54EA55FA50E9418
:101A70003C1FD301F201762E672E582E492EA9CF96
:101A80002C893D894E895F89688D798D8A8D9B8DE2
:101A90000E943C1F4B015C01672D762D852D942DF6
:101AA0000E949B1F6C8B7D8B8E8B9F8B672D762D61
:101AB000852D942D0E946D216CA37DA38EA39FA3E1
:101AC00020E834E94AED5BE30E942B1D2CA13DA1E7
:101AD0004EA15FA10E942B1D9B01AC0160E070E054
:101AE00080E89FE30E94BC1E6B017C010E947B2169
:101AF0009B01AC0169ED7CE882EC9AE40E94A01F96
:101B0000688F798F8A8F9B8F20E030E040EC5FE315
:101B1000C701B6010E941D219B01AC016FE970E471
:101B200081EC9AE40E94A01F9B01AC01688D798D25
:101B30008A8D9B8D0E94A01F6CAF7DAF8EAF9FAF33
:101B400020E030E040E85FE30E94BC1E68AB79AB68
:101B50008AAB9BAB22E23FEE4AE55FE3672D762D31
:101B6000852D942D0E94BC1E68A779A78AA79BA7E4
:101B70000E946D216C966CAF7DAF8EAF9FAF6C975E
:101B800022E23FEE4AE55FE3672D762D852D942D09
:101B90000E94BD1E6B017C010E949B1FA0966CAF32
:101BA0007DAF8EAF9FAFA09728A539A54AA55BA5AD
:101BB000CA01B9010E94BD1E0E946D21A4966CAF9E
:101BC0007DAF8EAF9FAFA497A7019601C701B60165
:101BD0000E94BD1E0E949B1FA8966CAF7DAF8EAF6A
:101BE0009FAFA89720E030E040E450E468A579A5D5
:101BF0008AA59BA50E942B1D0E946D21AC966CAFFF
:101C00007DAF8EAF9FAFAC9720E030E040E450E472
:101C1000C701B6010E942B1D0E949B1FE0966CAF6E
:101C20007DAF8EAF9FAFE0972C893D894E895F894C
:101C3000CA01B9010E942B1D2C893D894E895F89FB
:101C40000E942B1D6CAB7DAB8EAB9FAB2C893D896D
:101C50004E895F890E942B1D2C893D894E895F89A1
:101C60000E942B1D24966CAF7DAF8EAF9FAF249743
:101C7000672D762D852D942D0E94BF219B01AC01EF
:101C80000E942B1D6C8F7D8F8E8F9F8F9B01AC01CF
:101C90000E942B1D28966CAF7DAF8EAF9FAF28970B
:101CA00020E030E048E652E46C8D7D8D8E8D9F8D76
:101CB0000E942B1D2C966CAF7DAF8EAF9FAF2C97E3
:101CC00026E33AEF4EE05DE3C501B4010E94BD1E7C
:101CD0002B013C019B01AC010E942B1D60966CAF57
:101CE0007DAF8EAF9FAF60979B01AC01C301B20186
:101CF0000E942B1D6B017C019B01AC01C301B20151
:101D00000E942B1D64966CAF7DAF8EAF9FAF649722
:101D10009B01AC01C301B2010E942B1D68966CAF00
:101D20007DAF8EAF9FAF689720E030E040E951E48F
:101D30006C8D7D8D8E8D9F8D0E942B1D9B01AC0126
:101D400060E070E080EA90E40E94BC1E28962CAD12
:101D50003DAD4EAD5FAD28970E94BD1E4B015C01AD
:101D600020E030E040E651E468A979A98AA99BA95E
:101D70000E942B1D9B01AC01C501B4010E94BD1E38
:101D80004B015C012C962CAD3DAD4EAD5FAD2C975B
:101D900068A979A98AA99BA90E942B1D9B01AC0166
:101DA000C501B4010E94BC1E4B015C0120E030E083
:101DB00040EF52E4688D798D8A8D9B8D0E94A01F23
:101DC00024962CAD3DAD4EAD5FAD24970E942B1DEA
:101DD0009B01AC01C501B4010E942B1D68962CAD7E
:101DE0003DAD4EAD5FAD68970E942B1D4B015C0170
:101DF00020E030E040EC50E4688D798D8A8D9B8D39
:101E00000E94A01F2CA93DA94EA95FA90E942B1DCD
:101E1000E4966CAF7DAF8EAF9FAFE4972C8D3D8D78
:101E20004E8D5F8D6CAD7DAD8EAD9FAD0E94BC1EA5
:101E30009B01AC01E4966CAD7DAD8EAD9FADE4979A
:101E40000E942B1DA70196010E942B1D6B017C0196
:101E50002C893D894E895F89688D798D8A8D9B8D0E
:101E60000E942B1DA30192010E942B1D20E030E552
:101E700043EC58E40E94BD1E9B01AC01C701B601B2
:101E80000E94BD1E9B01AC01C501B4010E94BD1E94
:101E90006093CF037093D0038093D1039093D203C8
:101EA00021EF36E340E85FE368A579A58AA59BA505
:101EB0000E942B1D6B017C012DE832EC44EA5BE3B0
:101EC0006C966CAD7DAD8EAD9FAD6C970E942B1D59
:101ED000A0962CAD3DAD4EAD5FADA0970E942B1DE1
:101EE0009B01AC01C701B6010E94BC1E6B017C01C5
:101EF0002AE43FE640EB56E3A4966CAD7DAD8EAD93
:101F00009FADA4970E942B1DA8962CAD3DAD4EAD64
:101F10005FADA8970E942B1D9B01AC01C701B601C4
:101F20000E94BD1E6B017C0125EA3AEB4AEE51E3AB
:101F3000AC966CAD7DAD8EAD9FADAC970E942B1D68
:101F4000E0962CAD3DAD4EAD5FADE0970E942B1DF0
:101F50009B01AC01C701B6010E94BC1E25E736EE0D
:101F600041EC5AE40E942B1D20E030E543EC57E49D
:101F70000E94BC1E6B017C0120E030E040E05FE38A
:101F8000688D798D8A8D9B8D0E942B1D2CA13DA182
:101F90004EA15FA10E942B1D2C893D894E895F892E
:101FA0000E942B1D60962CAD3DAD4EAD5FAD609790
:101FB0000E942B1D9B01AC01C701B6010E94BD1EF2
:101FC0006B017C0120E030E040EC51E4688D798DBC
:101FD0008A8D9B8D0E94A01F2CA13DA14EA15FA1C7
:101FE0000E942B1D2CA93DA94EA95FA90E942B1D63
:101FF0004B015C012C8D3D8D4E8D5F8D60E070E05E
:1020000080EA90E40E94BC1E6C8F7D8F8E8F9F8F24
:1020100020E030E040E151E468A979A98AA99BA9B0
:102020000E942B1D9B01AC016C8D7D8D8E8D9F8D33
:102030000E94BD1E9B01AC01C501B4010E942B1D75
:1020400064962CAD3DAD4EAD5FAD64970E942B1DE7
:102050009B01AC01C701B6010E94BD1E6B017C0152
:1020600020E030E044E354E4688D798D8A8D9B8DC7
:102070000E94A01F2CA13DA14EA15FA10E942B1D7B
:1020800024962CAD3DAD4EAD5FAD24970E942B1D27
:102090004B015C012C962CAD3DAD4EAD5FAD2C9748
:1020A00060E070E084E792E40E94BC1E28962CADAC
:1020B0003DAD4EAD5FAD28970E94BD1E9B01AC01AA
:1020C000C501B4010E942B1D4B015C0168962CAD2B
:1020D0003DAD4EAD5FAD6897C301B2010E942B1DAF
:1020E0009B01AC01C501B4010E942B1D9B01AC01F9
:1020F000C701B6010E94BD1E6093D3037093D40341
:102100008093D5039093D6032C893D894E895F89AE
:102110006CA57DA58EA59FA50E94A01F28AD39ADF9
:102120004AAD5BAD0E94BC1E6093D7037093D80389
:102130008093D9039093DA0368A179A18AA19BA126
:102140006093CE017093CF018093D0019093D10121
:102150008091D3019091D401A091D501B091D60185
:1021600028A139A14AA15BA1281B390B4A0B5B0BA3
:10217000DA01C901813137E29307A105B10510F0F9
:102180001092D7012091D701211114C081329E44B1
:10219000A105B10578F081E08093D70168A179A10C
:1021A0008AA19BA16093D3017093D4018093D50140
:1021B0009093D6018091CA019091CB01A091CC015E
:1021C000B091CD0128A139A14AA15BA1281B390BEF
:1021D0004A0B5B0BDA01C901813D9740A105B105AE
:1021E00008F0FBC51111F9C529C060912E0470914A
:1021F0002F0480913004909131040E9412207F932B
:102200006F9380E791E09F938F933F922F920E946C
:102210003023C1010E94BB070F900F900F900F90C9
:102220000F900F9048A159A16AA17BA14093CA01C8
:102230005093CB016093CC017093CD0180915404F5
:1022400081116DC08091550490915604009779F0EA
:10225000DC01ED91FC910084F185E02D0995892B3D
:1022600009F45DC0809155049091560412C080918C
:10227000570490915804DC01ED91FC910084F185A4
:10228000E02D0995892B09F44AC08091570490915B
:102290005804DC01ED91FC910284F385E02D099551
:1022A0008A3049F59091CD03E091CB03F091CC03B6
:1022B000E90FF11D10822091CB033091CC03B3E0E4
:1022C00023353B0739F449ED52E05093CC0340935A
:1022D000CB0308C023E533E03093CC032093CB033A
:1022E00029ED32E030935203209351031092CD0335
:1022F00091E09093CE03E091CB03F091CC039091C9
:10230000CD0321E0290F2093CD03E90FF11D808338
:102310008091CD03883718F087E78093CD038091B3
:10232000CE03882309F438C51092CE0300915103DF
:1023300010915203F80101900020E9F73197E01B5A
:10234000F10B9F0124503109D801A20FB31F8C91CA
:102350008A32E9F5E00FF11FDF0113978C9180338A
:1023600054F08A3314F4805307C09FEB980F9630D3
:1023700010F4875301C080E060E1869FA001112422
:1023800032978081803354F08A3314F4805307C02D
:102390009FEB980F963010F4875301C080E0DA016C
:1023A000A80FB11DCD0142E0642F70E062177307E2
:1023B00058F4F801E60FF71F6081062E000C770B2A
:1023C000862797274F5FF0CF892B09F0E5C46CEA89
:1023D00071E0C8010E941623892B09F46BC26CE2DC
:1023E00070E0C8010E94FC228C010F5F1F4FC801E2
:1023F0000E94BE186B017C010E9419204B015C01F8
:1024000020E137E240E050E00E94751E20930A046C
:1024100024E630E040E050E00E94751E20930B045B
:10242000C501B40124E630E040E050E00E94751E92
:1024300060930C0420E030E040E85FE3C701B601A0
:102440000E94532020E030E04AE754E40E942B1D14
:102450000E94192070931104609310046CE270E0E4
:10246000C8010E94FC227C018C010F5F1F4FFC0100
:1024700081818C3209F4A5C042E050E0B801C1016D
:102480000E9407231B82C1010E94E0189B01AC013E
:1024900060E876E988E990E00E943D1E4B015C010E
:1024A000B7016D5F7F4F42E050E0C1010E940723FA
:1024B0000B5F1F4F44E050E0B801CE0103960E942D
:1024C00007231F82C1010E94E0189B01AC01A2E317
:1024D000B0E00E94EC1D23E030E040E050E00E94BC
:1024E000971E69017A01D501C401820F931FA41FB1
:1024F000B51F80931A0490931B04A0931C04B093FF
:102500001D04C501B40120EA36E841E050E00E9414
:10251000971ECA01B9010E94CC1C4B015C01C70186
:10252000B6010E94CC1C2CE933E549EC56E30E942D
:102530002B1D9B01AC01C501B4010E94BD1E4B01C6
:102540005C016093120470931304809314049093BD
:10255000150420E030E048EC52E40E94A01F0E94E5
:1025600012206B017C0184E68C9DB0018D9D700D65
:102570001124072E000C880B990B0E94CC1C9B0188
:10258000AC01C501B4010E94BC1E20E030E040E770
:1025900052E40E94A01F4B015C01B601DD0C880BC8
:1025A000990B0E94CC1C9B01AC01C501B4010E9497
:1025B000BD1E60932204709323048093240490939F
:1025C00025046CE270E0C8010E94FC22FC019C0121
:1025D0002F5F3F4F81818C3201F1833589F48091E7
:1025E000220490912304A0912404B0912504B058B2
:1025F0008093220490932304A0932404B093250491
:1026000091819E3411F0933519F49093420405C0E2
:102610009C3209F0C1C3109242046CE270E0C9011F
:102620000E94FC227C018C010F5F1F4FDC01119680
:102630008C918C3209F4A5C043E050E0B801C1018F
:102640000E9407231C82C1010E94E0189B01AC017B
:1026500060E876E988E990E00E943D1E4B015C014C
:10266000B7016C5F7F4F42E050E0C1010E94072339
:102670000A5F1F4F44E050E0B801CE0103960E946C
:1026800007231F82C1010E94E0189B01AC01A2E355
:10269000B0E00E94EC1D23E030E040E050E00E94FA
:1026A000971E69017A01D501C401820F931FA41FEF
:1026B000B51F80931E0490931F04A0932004B09331
:1026C0002104C501B40120EA36E841E050E00E944F
:1026D000971ECA01B9010E94CC1C4B015C01C701C5
:1026E000B6010E94CC1C2CE933E549EC56E30E946C
:1026F0002B1D9B01AC01C501B4010E94BD1E4B0105
:102700005C016093160470931704809318049093EF
:10271000190420E030E048EC52E40E94A01F0E941F
:1027200012206B017C0184E68C9DB0018D9D700DA3
:102730001124072E000C880B990B0E94CC1C9B01C6
:10274000AC01C501B4010E94BC1E20E030E040E7AE
:1027500052E40E94A01F4B015C01B601DD0C880B06
:10276000990B0E94CC1C9B01AC01C501B4010E94D5
:10277000BD1E6093260470932704809328049093D1
:1027800029046CE270E0C8010E94FC22FC019C015B
:102790002F5F3F4F81818C3201F1873589F4809121
:1027A000260490912704A0912804B0912904B058E0
:1027B0008093260490932704A0932804B0932904BF
:1027C0009181973511F0953419F49093430405C025
:1027D0009C3209F0E1C2109243046CE270E0C9013E
:1027E0000E94FC228C010F5F1F4FFC0181818C3203
:1027F00029F0C8010E94C218809346046CE270E080
:10280000C8010E94FC228C010F5F1F4FDC01119652
:102810008C918C3229F0C8010E94C2188093470421
:102820006CE270E0C8010E94FC228C010F5F1F4F18
:10283000FC0181818C3259F0C8010E94BE1860935E
:102840003E0470933F0480934004909341046CE2F3
:1028500070E0C8010E94FC228C010F5F1F4FDC0159
:1028600011968C918C3259F0C8010E94BE18609369
:102870002E0470932F0480933004909331046CE203
:1028800070E0C8010E94FC226CE270E001960E9498
:10289000FC22FC0121812C3209F47EC201960E94A7
:1028A000BE1860932A0470932B0480932C04909399
:1028B0002D0472C263EB71E0C8010E941623892BBC
:1028C00009F46AC26CE270E0C8010E94FC228C012B
:1028D0000F5F1F4FC8010E94BE186B017C010E9450
:1028E00019204B015C0120E137E240E050E00E94FA
:1028F000751E20930A0424E630E040E050E00E9478
:10290000751E20930B04C501B40124E630E040E0BD
:1029100050E00E94751E60930C0420E030E040E817
:102920005FE3C701B6010E94532020E030E04AE790
:1029300054E40E942B1D0E9419207093110460938F
:1029400010046CE270E0C8010E94FC22DC011196C8
:102950002C91213421F421E02093450405C0263533
:1029600009F01AC2109245046CE270E001960E94D0
:10297000FC227C018C010F5F1F4FFC0181818C3296
:1029800009F4A5C042E050E0B801C1010E9407234C
:102990001B82C1010E94E0189B01AC0160E876E94E
:1029A00088E990E00E943D1E4B015C01B7016D5F1C
:1029B0007F4F42E050E0C1010E9407230B5F1F4F91
:1029C00044E050E0B801CE0103960E9407231F8225
:1029D000C1010E94E0189B01AC01A2E3B0E00E949B
:1029E000EC1D23E030E040E050E00E94971E6901BA
:1029F0007A01D501C401820F931FA41FB51F8093D4
:102A00001A0490931B04A0931C04B0931D04C501E9
:102A1000B40120EA36E841E050E00E94971ECA0166
:102A2000B9010E94CC1C4B015C01C701B6010E9498
:102A3000CC1C2CE933E549EC56E30E942B1D9B018D
:102A4000AC01C501B4010E94BD1E4B015C01609345
:102A5000120470931304809314049093150420E0DF
:102A600030E048EC52E40E94A01F0E9412206B014B
:102A70007C0184E68C9DB0018D9D700D1124072E84
:102A8000000C880B990B0E94CC1C9B01AC01C5016A
:102A9000B4010E94BC1E20E030E040E752E40E94F6
:102AA000A01F4B015C01B601DD0C880B990B0E9445
:102AB000CC1C9B01AC01C501B4010E94BD1E6093FA
:102AC00022047093230480932404909325046CE2E1
:102AD00070E0C8010E94FC22FC019C012F5F3F4F67
:102AE00081818C3201F1833589F4809122049091A7
:102AF0002304A0912404B0912504B05880932204AB
:102B000090932304A0932404B093250491819E34D0
:102B100011F0933519F49093420405C09C3209F0EA
:102B20003BC1109242046CE270E0C9010E94FC2299
:102B30007C018C010F5F1F4FDC0111968C918C3250
:102B400009F4A5C043E050E0B801C1010E94072389
:102B50001C82C1010E94E0189B01AC0160E876E98B
:102B600088E990E00E943D1E4B015C01B7016C5F5B
:102B70007F4F42E050E0C1010E9407230A5F1F4FD0
:102B800044E050E0B801CE0103960E9407231F8263
:102B9000C1010E94E0189B01AC01A2E3B0E00E94D9
:102BA000EC1D23E030E040E050E00E94971E6901F8
:102BB0007A01D501C401820F931FA41FB51F809312
:102BC0001E0490931F04A0932004B0932104C50118
:102BD000B40120EA36E841E050E00E94971ECA01A5
:102BE000B9010E94CC1C4B015C01C701B6010E94D7
:102BF000CC1C2CE933E549EC56E30E942B1D9B01CC
:102C0000AC01C501B4010E94BD1E4B015C01609383
:102C1000160470931704809318049093190420E00D
:102C200030E048EC52E40E94A01F0E9412206B0189
:102C30007C0184E68C9DB0018D9D700D1124072EC2
:102C4000000C880B990B0E94CC1C9B01AC01C501A8
:102C5000B4010E94BC1E20E030E040E752E40E9434
:102C6000A01F4B015C01B601DD0C880B990B0E9483
:102C7000CC1C9B01AC01C501B4010E94BD1E609338
:102C800026047093270480932804909329046CE20F
:102C900070E0C8010E94FC22FC019C012F5F3F4FA5
:102CA00081818C3201F1873589F4809126049091DD
:102CB0002704A0912804B0912904B05880932604D9
:102CC00090932704A0932804B09329049181973509
:102CD00011F0953419F49093430405C09C3209F027
:102CE0005BC0109243046CE270E0C9010E94FC22B8
:102CF0008C010F5F1F4FFC0181818C3259F0C8019C
:102D00000E94BE186093320470933304809334049D
:102D1000909335046CE270E0C8010E94FC228C01A3
:102D20000F5F1F4FDC0111968C918C3259F0C80156
:102D30000E94BE1860933604709337048093380461
:102D4000909339046CE270E0C8010E94FC22FC01FF
:102D500021812C3209F101960E94BE180E9419208F
:102D60006B017C0120E137E240E050E00E94751EDB
:102D700020930F0424E630E040E050E00E94751EEE
:102D800020930E04C701B60124E630E040E050E095
:102D90000E94751E60930D040E942E020C948D0AF1
:102DA0000E94E5086093E4037093E5038093E603D3
:102DB0009093E7030C94130B0E94E5086093E403DF
:102DC0007093E5038093E6039093E7038091DC031F
:102DD00082608093DC030C94340B8091D7018823AC
:102DE00009F496C0E091D2018E2F90E089309105D0
:102DF00008F08BC0FC01EC5CFF4F0C94B61E609198
:102E000032047091330480913404909135040E940F
:102E100012207F936F9388E791E0F5C98091470472
:102E20001F928F9380E891E0EEC960913604709113
:102E3000370480913804909139040E9412207F93C6
:102E40006F9388E891E0DFC980910B041F928F9304
:102E500080910A041F928F9340E951E05F934F9352
:102E60003F922F920E943023C10147C06091CF034F
:102E70007091D0038091D1039091D203810120E021
:102E800046E00E949E1885E40EC06091D3037091C5
:102E9000D4038091D5039091D603810120E046E0D0
:102EA0000E949E188EE48B8780E28C8789818D87B3
:102EB0008A818E878B818F878C81888B8D81898B8E
:102EC0008E818A8BCE010B960E94BB07ABC9809185
:102ED0000D041F928F9380910E041F928F93809107
:102EE0000F041F928F93ADE9B1E0BF93AF931F9290
:102EF0001F920E94302380E090E00E94BB070FB633
:102F0000F894DEBF0FBECDBF8DC90E945C058AC993
:102F10000E94F00787C986E191E090935A0480935C
:102F200059048091C8019091C9018955944071F468
:102F3000E0916C04F0916D04908180916E04809515
:102F4000892380831092C9011092C80108951092BC
:102F5000D0021092CF0288EE93E0A0E0B0E0809320
:102F6000D1029093D202A093D302B093D40224E072
:102F700031E03093CE022093CD0210925C04109287
:102F80005B0480935D0490935E04A0935F04B09310
:102F9000600486E191E090935A0480935904109262
:102FA000700410926F0410927204109271041092C7
:102FB0007404109273041092760410927504609158
:102FC00077046E7F6D7F609377046695617081E012
:102FD000682788E00E94400861E088E00E946F084E
:102FE000E3EAF3E0E491E0936904EFE8F3E0E491CD
:102FF000F0E0EE0FFF1FE358FC4F85919491909302
:103000006B0480936A0460E089E00E946F088091FD
:10301000770481FD04C061E089E00E94400889E0F6
:1030200080936504E4EAF3E0E491E0936604E0E968
:10303000F3E0E491F0E0EE0FFF1FED58FC4F8591B7
:1030400094919093680480936704109258041092AE
:1030500057041092CE03109254041092CD0383E5CE
:1030600093E09093CC038093CB0389ED92E090930F
:103070005203809351031092470410924604109219
:103080000F0410920E0410920D0410920C04109272
:103090000B0410920A0410924404109243041092FC
:1030A00042041092450410921104109210041092E0
:1030B0003E0410923F04109240041092410410927A
:1030C0003A0410923B0410923C0410923D0410927A
:1030D000360410923704109238041092390410927A
:1030E000320410923304109234041092350410927A
:1030F0002E0410922F04109230041092310410927A
:103100002A0410922B0410922C0410922D04109279
:1031100016041092170410921804109219041092B9
:10312000120410921304109214041092150489E5ED
:1031300094E090935604809355040895EF920F9372
:103140001F93CF93DF93E80147FD02C034E001C035
:1031500034E1042E000C550B57FF03C051954195E7
:103160005109E32E022F242FAE010E942419CE0113
:10317000DF91CF911F910F91EF90089566277727E8
:103180000C947E1AFC0188279927E894219120321B
:10319000E9F3293010F02E30C8F32B3241F02D32F4
:1031A00039F4689404C00E941C19820F911D21916A
:1031B00020532A30C0F31EF4909581959F4F0895B7
:1031C0001F93FC0199278827BC01E89411911032C4
:1031D000E9F3193010F01E30C8F31B3251F01D32E4
:1031E00049F4689406C00E940719610F711D811D82
:1031F000911D119110531A30B0F33EF490958095C3
:10320000709561957F4F8F4F9F4F1F910895592F54
:10321000482F372F262F660F771F881F991F660F9D
:10322000771F881F991F620F731F841F951F660FDA
:10323000771F881F991F08957AE0979F902D879F89
:10324000802D910D11240895A9E0B0E0EAE2F9E1A2
:103250000C94FD1D6A01122FB02E2BE3201720F0D5
:10326000FF24F394F00E02C02CE3F22E0F2D27E082
:10327000AE014F5F5F4F0E94CC1BBC014981842F80
:103280008970813031F0E1FC06C0E0FE06C090E2BA
:1032900005C09DE203C09BE201C090E05E2D50712D
:1032A00043FF3CC0911102C083E001C084E081175C
:1032B00018F4212F281B01C020E051110BC0F6018A
:1032C000822F30E2882319F031938150FBCFC20E58
:1032D000D11C20E0992329F0D6019C93F601319668
:1032E0006F01C6010396E2FE0AC03EE4D6013C939C
:1032F00041E411964C93119712963C9306C03EE61A
:10330000F601308341E641833283FC01322F40E2F3
:10331000332309F442C041933150FACF42FF44C0F5
:10332000911102C083E001C084E0811718F4212FBD
:10333000281B01C020E051110BC0F601822F30E2A2
:10334000882319F031938150FBCFC20ED11C20E0AD
:10335000992329F0D6019C93F60131966F01C6019D
:103360000396E2FE0BC039E4D6013C933EE411968D
:103370003C93119736E412963C9307C039E6F60168
:1033800030833EE6318336E63283FC01322F40E261
:10339000332319F041933150FBCFFC01E20FF11DB3
:1033A00010828EEF9FEFA6C021E030E0911102C0A5
:1033B00020E030E0161617061CF4FB01319602C01F
:1033C000E1E0F0E02E0F3F1FBB2021F0EB2DF0E0FD
:1033D000319602C0E0E0F0E02E0F3F1FE12FF0E059
:1033E0002E173F071CF4121B212F01C020E08E2D49
:1033F000887159F4F601822F30E2882319F0319355
:103400008150FBCFC20ED11C20E0992329F0D601B8
:103410009C93F60131966F0151110BC0F601822F7A
:1034200090E3882319F091938150FBCFC20ED11CF9
:1034300020E00F2D060F9A81342F307144FF03C016
:10344000913309F40150101624F4093018F008E003
:1034500001C001E0AB0177FF02C040E050E0FB019A
:10346000E41BF50BA1E0B0E0AC0FBD1FEA0FFB1FA2
:103470008EE2A82E4B01801A91080B2D10E01195B9
:10348000019511094F3FBFEF5B0721F4D601AC92C4
:1034900011966D01641775072CF08416950614F4C7
:1034A000818101C080E3415051093196D6011196C6
:1034B0007D014017510724F0D6018C936701E2CFBC
:1034C0006417750739F4963320F4953319F43111E4
:1034D00001C081E3F6018083F701822F90E2882307
:1034E00019F091938150FBCFF701E20FF11D10828B
:1034F00080E090E02996ECE00C94191EA0E0B0E08A
:10350000E4E8FAE10C94FD1DEC016B016115710515
:1035100019F0FB01918380837E01FFEFEF1AFF0A10
:103520000881802F90E00E94A41C892B11F0E701F4
:10353000F3CF0D3239F47E0182E0E80EF11C0981EF
:1035400011E008C00B3229F47E0192E0E90EF11C73
:10355000098110E0E701219743E050E062E771E064
:10356000CE010E94AD1C892BC1F4239645E050E0AA
:103570006DE671E0CE010E94AD1C892B09F4259601
:10358000C114D10419F0F601D183C0831111F6C022
:1035900060E070E080E89FE7FAC043E050E06AE650
:1035A00071E0CE010E94AD1C892B59F4C114D104E5
:1035B00009F4E9C0F2E0EF0EF11CF601F182E082BD
:1035C000E2C020E030E0A901C0E0D0E0F70180EDEA
:1035D000A82EA00E89E08A1530F1912F9260B92EA5
:1035E000812F887012FF04C0811124C0219622C04F
:1035F00081112197A5E0B0E00E94EC1DDC01CB0118
:10360000880F991FAA1FBB1F9C01AD012A0D311DF8
:10361000411D511D283989E93807480789E15807B4
:1036200048F0166006C09EEFA9120AC013FD40C004
:103630001860B12E8FEFE81AF80A00811B2DC6CF53
:10364000802F8F7D8534A1F580818D3211F410613A
:1036500006C08B3221F0319661E070E004C08181B8
:10366000329662E070E080538A3018F0E61BF70B68
:103670001FC060E070E060389CE079075CF4DB011B
:10368000AA0FBB1FAA0FBB1F6A0F7B1F660F771FF6
:10369000680F711D3196DF0111978C9180538A302C
:1036A00050F314FF03C0719561957109C60FD71FC0
:1036B00011FF08C0C114D10429F0CF010197F60110
:1036C00091838083CA01B9010E94CA1C212F2370F3
:1036D000233019F04B015C0106C04B015C01B7FAC5
:1036E000B094B7F8B09420E030E0A901C501B4016E
:1036F0000E94C51C882309F43EC0D7FF06C0D1959F
:10370000C195D10909E811E002C001EA11E06801A0
:10371000F8E1CF1AD10890E2E92EF12CCE15DF05A1
:1037200074F0F8012591359145915491C501B4018A
:103730000E942B1D4B015C01CE19DF09EFCF045015
:103740001109F594E7940C151D0541F78A2D880F92
:103750008B2D881F8F3F49F020E030E0A901C50183
:10376000B4010E94C51C811106C082E290E09093D2
:10377000820480938104C501B40109C060E070E057
:1037800080E89FEF04C060E070E080EC9FE7CDB779
:10379000DEB7ECE00C94191E283008F027E0332740
:1037A000DA01990F311D87FD916000966105710561
:1037B00039F432602E5F3D9330E32A95E1F70895A6
:1037C0009F3F30F080387105610509F03C5F3C5F38
:1037D0003D93913008F08068911DDF93CF931F9344
:1037E0000F93FF92EF92192F987F9695E92F969558
:1037F0009695E90FFF27E150FE4F99273327EE24D6
:10380000FF24A701E70105900894079428F4360FD8
:10381000E71EF81E491F511D660F771F881F991F4D
:103820000694A1F70590079428F4E70EF81E491FA7
:10383000561FC11D770F881F991F661F0694A1F799
:103840000590079428F4F80E491F561FC71FD11D75
:10385000880F991F661F771F0694A1F7059007949C
:1038600020F4490F561FC71FD81F990F661F771FD7
:10387000881F0694A9F784911095177041F0D6958A
:10388000C79557954795F794E7941A95C1F7E5EAD8
:10389000F1E0689415901591359165919591059099
:1038A0007FE27395E118F10A430B560BC90BD0095F
:1038B000C0F7E10CF11E431F561FC91FD01D7EF437
:1038C000703311F48A95E6CFE894015030F0080F78
:1038D0000AF40027021708F4202F2395022F7A33C9
:1038E00028F079E37D932A95E9F710C07D932A9516
:1038F00089F6069497956795379517951794E1186B
:10390000F10A430B560BC90BD00998F023957E9111
:1039100073957A3308F070E37C932013B8F77E91A7
:1039200070617D9330F0839571E37D9370E32A9508
:10393000E1F71124EF90FF900F911F91CF91DF914C
:10394000992787FD9095089591110C94981D8032C8
:1039500019F089508550C8F70895FB01DC014150EA
:10396000504088F08D9181341CF08B350CF4805ED2
:10397000659161341CF06B350CF4605E861B61113F
:1039800071F3990B0895881BFCCF0E94071D08F462
:1039900081E00895E89409C097FB3EF490958095E6
:1039A000709561957F4F8F4F9F4F9923A9F0F92F05
:1039B00096E9BB279395F695879577956795B79583
:1039C000F111F8CFFAF4BB0F11F460FF1BC06F5F69
:1039D0007F4F8F4F9F4F16C0882311F096E911C07B
:1039E000772321F09EE8872F762F05C0662371F09C
:1039F00096E8862F70E060E02AF09A95660F771FB0
:103A0000881FDAF7880F9695879597F90895990F8B
:103A10000008550FAA0BE0E8FEEF16161706E80798
:103A2000F907C0F012161306E407F50798F0621BB9
:103A3000730B840B950B39F40A2661F0232B242B8E
:103A4000252B21F408950A2609F4A140A6958FEFAD
:103A5000811D811D08950E943E1D0C94B21D0E947F
:103A6000A41D38F00E94AB1D20F0952311F00C949A
:103A70009B1D0C94A11D11240C94E61D0E94C31DD6
:103A800070F3959FC1F3950F50E0551F629FF001B1
:103A9000729FBB27F00DB11D639FAA27F00DB11DCA
:103AA000AA1F649F6627B00DA11D661F829F222753
:103AB000B00DA11D621F739FB00DA11D621F839FDA
:103AC000A00D611D221F749F3327A00D611D231FB0
:103AD000849F600D211D822F762F6A2F11249F57FE
:103AE00050409AF0F1F088234AF0EE0FFF1FBB1F01
:103AF000661F771F881F91505040A9F79E3F5105C0
:103B000080F00C949B1D0C94E61D5F3FE4F3983EFF
:103B1000D4F3869577956795B795F795E7959F5F69
:103B2000C1F7FE2B880F911D9695879597F90895FB
:103B300099278827089597F99F6780E870E060E0EB
:103B400008959FEF80EC089500240A941616170636
:103B500018060906089500240A941216130614067E
:103B600005060895092E0394000C11F4882352F0E1
:103B7000BB0F40F4BF2B11F460FF04C06F5F7F4F99
:103B80008F4F9F4F089557FD9058440F551F59F080
:103B90005F3F71F04795880F97FB991F61F09F3F3A
:103BA00079F087950895121613061406551FF2CF63
:103BB0004695F1DF08C0161617061806991FF1CFB3
:103BC00086957105610508940895E894BB276627DA
:103BD0007727CB0197F908950E942E1EA59F900D7F
:103BE000B49F900DA49F800D911D112408952F92D4
:103BF0003F924F925F926F927F928F929F92AF927D
:103C0000BF92CF92DF92EF92FF920F931F93CF93C9
:103C1000DF93CDB7DEB7CA1BDB0B0FB6F894DEBF60
:103C20000FBECDBF09942A88398848885F846E8486
:103C30007D848C849B84AA84B984C884DF80EE80D0
:103C4000FD800C811B81AA81B981CE0FD11D0FB6D9
:103C5000F894DEBF0FBECDBFED010895A29FB00165
:103C6000B39FC001A39F700D811D1124911DB29FB0
:103C7000700D811D1124911D0895DB018F939F9379
:103C80000E94EC1DBF91AF91A29F800D911DA39F3B
:103C9000900DB29F900D11240895AA1BBB1B51E1FA
:103CA00007C0AA1FBB1FA617B70710F0A61BB70BAC
:103CB000881F991F5A95A9F780959095BC01CD0151
:103CC000089597FB072E16F4009407D077FD09D0CE
:103CD0000E944D1E07FC05D03EF4909581959F4FA4
:103CE0000895709561957F4F0895A1E21A2EAA1B41
:103CF000BB1BFD010DC0AA1FBB1FEE1FFF1FA2179C
:103D0000B307E407F50720F0A21BB30BE40BF50B98
:103D1000661F771F881F991F1A9469F76095709521
:103D2000809590959B01AC01BD01CF010895052EB2
:103D300097FB1EF400940E94AE1E57FD07D00E9410
:103D4000751E07FC03D04EF40C94AE1E50954095A2
:103D5000309521953F4F4F4F5F4F08959095809537
:103D6000709561957F4F8F4F9F4F0895EE0FFF1F06
:103D70000590F491E02D09945058BB27AA270E9482
:103D8000D41E0C94B21D0E94A41D38F00E94AB1DDD
:103D900020F039F49F3F19F426F40C94A11D0EF481
:103DA000E095E7FB0C949B1DE92F0E94C31D58F37F
:103DB000BA17620773078407950720F079F4A6F510
:103DC0000C94E51D0EF4E0950B2EBA2FA02D0B01DF
:103DD000B90190010C01CA01A0011124FF27591B50
:103DE00099F0593F50F4503E68F11A16F040A22F56
:103DF000232F342F4427585FF3CF469537952795C7
:103E0000A795F0405395C9F77EF41F16BA0B620BC5
:103E1000730B840BBAF09150A1F0FF0FBB1F661F0C
:103E2000771F881FC2F70EC0BA0F621F731F841F4F
:103E300048F4879577956795B795F7959E3F08F075
:103E4000B0CF9395880F08F09927EE0F9795879537
:103E500008950E94A41D60F080E891E009F49EEFAF
:103E60000E94AB1D28F040E851E071F45EEF0CC0F9
:103E70000C94A11D0C94E51DE92FE0780E94C31D50
:103E800040F3092E052AB1F32617370748075907CB
:103E900038F00E2E07F8E02569F0E025E0640AC04E
:103EA000EF6307F8009407FADB01B9019D01DC011B
:103EB000CA01AD01EF930E94B71F0E94B21D0E947C
:103EC0006C1F5F91552339F02BED3FE049E450FD25
:103ED00049EC0C94BD1E0895DF93DD27B92FBF7701
:103EE00040E85FE31616170648075B0718F4D92F5A
:103EF0000E9415219F938F937F936F930E94BB2104
:103F0000EAE7F0E00E94AA200E94B21D2F913F91A3
:103F10004F915F910E943E1DDD2351F09058A2EA1F
:103F20002AED3FE049EC5FE3D0785D270E94D41E84
:103F3000DF910C94B21D0E94D320E3950C94FC20D9
:103F40000E94B41F0C94B21D0E94AB1D58F00E9439
:103F5000A41D40F029F45F3F29F00C949B1D5111E2
:103F60000C94E61D0C94A11D0E94C31D68F39923B7
:103F7000B1F3552391F3951B550BBB27AA27621765
:103F80007307840738F09F5F5F4F220F331F441F72
:103F9000AA1FA9F335D00E2E3AF0E0E832D09150A6
:103FA0005040E695001CCAF72BD0FE2F29D0660F93
:103FB000771F881FBB1F261737074807AB07B0E8D6
:103FC00009F0BB0B802DBF01FF2793585F4F3AF0DC
:103FD0009E3F510578F00C949B1D0C94E61D5F3FAD
:103FE000E4F3983ED4F3869577956795B795F79562
:103FF0009F5FC9F7880F911D9695879597F908954A
:10400000E1E0660F771F881FBB1F621773078407E5
:10401000BA0720F0621B730B840BBA0BEE1F88F7F4
:10402000E09508950E9419206894B1110C94E61D42
:1040300008950E94CB1D88F09F5798F0B92F9927BB
:10404000B751B0F0E1F0660F771F881F991F1AF083
:10405000BA95C9F714C0B13091F00E94E51DB1E0E6
:1040600008950C94E51D672F782F8827B85F39F0E5
:10407000B93FCCF3869577956795B395D9F73EF41C
:1040800090958095709561957F4F8F4F9F4F0895C4
:104090000E94A41D20F019F00E94AB1D50F40C9456
:1040A000A11D0C94E61DE92F0E94C31D88F3552322
:1040B000B1F3E7FB6217730784079507A8F189F34B
:1040C000E92FFF2788232AF03197660F771F881F73
:1040D000DAF7952F5527442332F091505040220FA4
:1040E000331F441FD2F7BB27E91BF50B621B730B71
:1040F000840BB109B1F222F4620F731F841FB11D4A
:1041000031972AF0660F771F881FBB1FEFCF9150A2
:10411000504062F041F0882332F0660F771F881F0D
:1041200091505040C1F793950C949C2086957795BB
:1041300067959F5FD9F7F7CF9F3F31F0915020F4FB
:10414000879577956795B795880F911D9695879573
:1041500097F90895DF93CF931F930F93FF92EF92F8
:10416000DF927B018C01689406C0DA2EEF010E9479
:104170003E1DFE01E894A5912591359145915591FB
:10418000A6F3EF010E94D41EFE019701A801DA9464
:1041900069F7DF90EF90FF900F911F91CF91DF9122
:1041A00008950C94A11D0E94CB1DD8F3E894E0E083
:1041B000BB279F57F0F02AED3FE049EC06C0EE0F19
:1041C000BB0F661F771F881F28F0B23A620773077C
:1041D000840728F0B25A620B730B840BE3959A950F
:1041E00072F7803830F49A95BB0F661F771F881FCF
:1041F000D2F790480C949E20EF93E0FF07C0A2EA0C
:104200002AED3FE049EC5FEB0E94D41E0E94B21DF4
:104210000F90039401FC9058E7EAF0E00C942522FB
:104220000E94071D08F48FEF08959B01AC0160E028
:1042300070E080E89FE30C94A01FFA01EE0FFF1FCF
:10424000309621053105A1F16115710561F48038C1
:10425000BFE39B0749F168949038810561F080388D
:10426000BFEF9B0741F099234AF5FF3FE105310578
:10427000210519F1E8940894E795D901AA2329F4B6
:10428000AB2FBE2FF85FD0F310C0FF5F70F4A69580
:10429000E0F7F73950F019F0FF3A38F49F779F9321
:1042A0000DD00F9007FC9058089546F00C94A11D76
:1042B00060E070E080E89FE308954FE79F775F93A9
:1042C0004F933F932F930E947B222F913F914F91C9
:1042D0005F910E942B1D0C94EC219F930E94D32090
:1042E0000F9007FCEE5F0C94FC2019F416F40C946C
:1042F000A11D0C949C200E94CB1DB8F39923C9F3F7
:10430000B6F39F57550B87FF0E941E220024A0E69C
:1043100040EA900180585695979528F4805C660F86
:10432000771F881F20F026173707480730F4621BD5
:10433000730B840B202931294A2BA69517940794D7
:10434000202531254A2758F7660F771F881F20F050
:1043500026173707480730F4620B730B840B200DC8
:10436000311D411DA09581F7B901842F9158880F07
:104370009695879508959B01AC010C942B1DDF93B6
:10438000D92F0E94D320E695D7952AED3FE049E446
:104390005FE3B33A6207730784079507D7953AF04E
:1043A000A2EA49EC90680E94D41E0E94B21DE5EC7E
:1043B000F0E00E942522DD0F13F00E941521DD0F91
:1043C0000BF49058DF91089529F416F00C949B1D7E
:1043D0000C94E51D0C94A11D0E94CB1DA8F39638EA
:1043E000A0F707F80F92E8942BE33AEA48EB5FE76F
:1043F0000E94411D0F920F920F924DB75EB70F9220
:104400000E94C322E8EEF0E00E94AA204F915F9143
:10441000EF91FF91E595EE1FFF1F49F0FE57E06811
:104420004427EE0F441FFA95E1F74195550B0E9482
:104430003D220F9007FE0C94152108959150504095
:10444000660F771F881FD2F708959F938F937F93EE
:104450006F93FF93EF939B01AC010E942B1DEF9193
:10446000FF910E94AA202F913F914F915F910C9450
:104470002B1D0C949B1D0C949C200E94CB1DD8F3EB
:104480009923C9F3940F511DA3F39150504094F018
:1044900059F0882332F0660F771F881F91505040E3
:1044A000C1F79E3F51052CF7880F911D9695879572
:1044B00097F908955F3FACF0983E9CF0BB27869536
:1044C00077956795B79508F4B1609395C1F7BB0FE1
:1044D00058F711F460FFE8CF6F5F7F4F8F4F9F4F0A
:1044E000E3CF0C94E61D16F00C949C200C94A11DB7
:1044F00068940C949B1D0E94CB1DA8F39923C1F3D3
:10450000AEF3DF93CF931F930F93FF92C92FDD2755
:1045100088232AF02197660F771F881FDAF720E09B
:1045200030E040E85FEB9FE3883920F0803E38F0D0
:1045300021968F770E94BD1EE0E1F1E004C00E9449
:10454000BD1EEDE3F1E00E94AA208B01BE01EC014B
:10455000FB2E6F5771097595771F880B990B0E9479
:10456000CC1C28E132E741E35FE30E943E1DAF2D02
:104570009801AE01FF900F911F91CF91DF910E94A2
:10458000D41E0C94B21DFA01DC01AA0FBB1F9B01C3
:10459000AC01BF5728F4222733274427507820C086
:1045A000B75190F4AB2F0024469537952795011C01
:1045B000A395D2F3002071F0220F331F441FB3954F
:1045C000DAF30ED00C94BC1E61307105A0E88A07A6
:1045D000B94630F49B01AC0166277727882790788D
:1045E000309621F02083318342835383089581E004
:1045F00090E0F8940C94E325FC018191861721F05A
:104600008823D9F7992708953197CF010895FB01A1
:10461000DC014150504048F001900D920020C9F754
:1046200001C01D9241505040E0F70895FB015191A7
:104630005523A9F0BF01DC014D9145174111E1F768
:1046400059F4CD010190002049F04D9140154111E0
:10465000C9F3FB014111EFCF81E090E0019708958C
:10466000AEE0B0E0E6E3F3E20C94051E0D891E898E
:1046700086E08C831A8309838FEF9FE79E838D8367
:10468000AE01475E5F4F6F89788DCE0101960E9423
:104690005223EF81F885E00FF11F10822E96E4E09F
:1046A0000C94211EABE0B0E0E8E5F3E20C94F71DBA
:1046B0006C017B018A01FC0117821682838181FFD4
:1046C000CCC1CE0101963C01F6019381F70193FD27
:1046D000859193FF81917F01882309F4BAC18532C6
:1046E00039F493FD859193FF81917F01853229F4FF
:1046F000B60190E00E944925E7CF912C212C312C66
:10470000FFE1F315D8F08B3279F038F4803279F08C
:104710008332A1F4232D20611DC08D3261F08033DE
:1047200069F4232D216016C0832D8260382EE32D7D
:10473000E4603E2E2AC0F32DF8601DC037FC2DC06A
:1047400020ED280F2A3040F08E32B9F436FC81C1BA
:10475000232D2064322E19C036FE06C08AE0989EB2
:10476000200D1124922E11C0EAE02E9E200D11245E
:10477000222EF32DF0623F2E08C08C3621F4832DBB
:104780008068382E02C0883641F4F70193FD859188
:1047900093FF81917F018111B3CF982F9F7D955415
:1047A000933028F40C5F1F4F9FE399830DC083362D
:1047B00031F0833771F0833509F059C021C0F80119
:1047C000808189830E5F1F4F88248394912C53012D
:1047D00013C02801F2E04F0E511CF801A080B180F7
:1047E00036FE03C0692D70E002C06FEF7FEFC50198
:1047F0000E943E254C018201F32DFF773F2E16C00B
:10480000280122E0420E511CF801A080B18036FE42
:1048100003C0692D70E002C06FEF7FEFC5010E94F9
:1048200033254C01F32DF0683F2E820133FC1BC071
:10483000822D90E088169906B0F4B60180E290E0EF
:104840000E9449252A94F4CFF50137FC859137FE63
:1048500081915F01B60190E00E94492521102A94C0
:1048600021E0821A91088114910471F7E8C084361E
:1048700011F0893641F5F80137FE07C0608171817A
:10488000828193810C5F1F4F08C060817181072E68
:10489000000C880B990B0E5F1F4FF32DFF763F2EF8
:1048A00097FF09C090958095709561957F4F8F4FC8
:1048B0009F4FF0683F2E2AE030E0A3010E9485253B
:1048C000882E861845C0853731F4232D2F7EB22ED1
:1048D0002AE030E025C0932D997FB92E8F36C1F0A4
:1048E00018F4883579F0B5C0803719F0883721F091
:1048F000B0C0E92FE061BE2EB4FE0DC0FB2DF46008
:10490000BF2E09C034FE0AC0292F2660B22E06C071
:1049100028E030E005C020E130E002C020E132E0D4
:10492000F801B7FE07C060817181828193810C5FBD
:104930001F4F06C06081718180E090E00E5F1F4FC5
:10494000A3010E948525882E8618FB2DFF773F2E18
:1049500036FE0DC0232D2E7FA22E891458F434FE6E
:104960000BC032FC09C0832D8E7EA82E05C0B82C4A
:10497000A32C03C0B82C01C0B92CA4FE0FC0FE01AB
:10498000E80DF11D8081803321F49A2D997EA92EA6
:1049900009C0A2FE06C0B394B39404C08A2D8678E1
:1049A00009F0B394A3FC11C0A0FE06C0B21488F4B1
:1049B000280C922C9B180EC0B21460F4B60180E251
:1049C00090E00E944925B394F7CFB21418F42B1845
:1049D00002C0982C212CA4FE10C0B60180E390E008
:1049E0000E944925A2FE17C0A1FC03C088E790E001
:1049F00002C088E590E0B6010CC08A2D867859F097
:104A0000A1FE02C08BE201C080E2A7FC8DE2B601EC
:104A100090E00E944925891438F4B60180E390E0C3
:104A20000E9449259A94F7CF8A94F301E80DF11D6D
:104A30008081B60190E00E9449258110F5CF2220A7
:104A400009F442CEB60180E290E00E9449252A9402
:104A5000F6CFF6018681978102C08FEF9FEF2B96EC
:104A6000E2E10C94131EFC010590615070400110AE
:104A7000D8F7809590958E0F9F1F0895FC01615087
:104A8000704001900110D8F7809590958E0F9F1F70
:104A900008950F931F93CF93DF93FB01238121FD93
:104AA00003C08FEF9FEF2CC022FF16C046815781B5
:104AB000248135814217530744F4A081B1819D01BF
:104AC0002F5F3F4F318320838C93268137812F5F67
:104AD0003F4F3783268314C08B01EC01FB01008418
:104AE000F185E02D0995892BE1F6D80116968D9177
:104AF0009C911797019617969C938E931697CE01CB
:104B0000DF91CF911F910F910895FA01AA272830C4
:104B100051F1203181F1E8946F936E7F6E5F7F4F8A
:104B20008F4F9F4FAF4FB1E03ED0B4E03CD0670F06
:104B3000781F891F9A1FA11D680F791F8A1F911D59
:104B4000A11D6A0F711D811D911DA11D20D009F4A9
:104B500068943F912AE0269F11243019305D3193EB
:104B6000DEF6CF010895462F4770405D4193B3E0D4
:104B70000FD0C9F7F6CF462F4F70405D4A3318F07B
:104B8000495D31FD4052419302D0A9F7EACFB4E02C
:104B9000A6959795879577956795BA95C9F70097E4
:104BA0006105710508959B01AC010A2E0694579585
:104BB000479537952795BA95C9F7620F731F841FDC
:104BC000951FA01D089511E0C9EDD1E004C0FE01BC
:104BD0000E94B61E2196CA3DD107C9F7F894FFCFAF
:104BE00000000000C9029C029A0370029402800235
:104BF000710200000000100304029A0370026003B7
:104C00007803F80224504D544B3331342C302C317E
:104C10002C302C312C302C302C302C302C302C30B3
:104C20002C302C302C302C302C302C302C302C30A4
:104C30002C302A32380024504D544B3232302C3133
:104C40003030302A31460020204D59475053200043
:104C5000414C5420253464005350442025346400D2
:104C6000534154202534640041474C2025346400CE
:104C7000544D4520253032642530326400253032D1
:104C8000642F253032642F2530326400244750478A
:104C9000474100244750524D43004C4F4341544933
:064CA0004E47000D0A0062
:00000001FF
